:09000000020A1575361802000E03
:10000B000200BAE53675F00A1202CCAFF0EF339569
:10001B00E0FE740F2FF58274033EF583E493F53005
:10002B00E53675F00A1202CCFF3395E0FE740F2F04
:10003B00F58274033EF583E493F531E52F75F00AF1
:10004B001202CCAFF0EF3395E0FE740F2FF58274F4
:10005B00033EF583E493F532E52F75F00A1202CCDB
:10006B00FF3395E0FE740F2FF58274033EF583E4A6
:10007B0093F533E52E75F00A1202CCAFF0EF339502
:10008B00E0FE740F2FF58274033EF583E493F53491
:10009B00E52E75F00A1202CCFF3395E0FE740F2F9C
:1000AB00F58274033EF583E493F53553327F22C01A
:1000BB00E0C0F0C083C082C0D075D000C000C001CA
:1000CB00C002C003C004C005C006C007758CF8751C
:1000DB008ACD1201461201F8D3E536648094805024
:1000EB0025C3E52B9464E52A6480948050031203A6
:1000FB000CC3E52F64809498500CE52E7008052BEB
:10010B00E52B7002052A052DE52D7002052CC394F5
:10011B00F4E52C94014009752C00752D001201A7F4
:10012B00D007D006D005D004D003D002D001D00028
:10013B00D0D0D082D083D0F0D0E0327580FFE529CB
:10014B0014601C14602514602E1460371460402456
:10015B00057048C292C291C290052985308022C297
:10016B0092C291D290052985318022C292D291C23E
:10017B0090052985328022C292D291D29005298591
:10018B00338022D292C291C290052985348022D22B
:10019B0092C291D290E4F52985358022E4F508F5D9
:1001AB00093000481536C3E536648094805022C36D
:1001BB00E52F648094985008E52E64809480400568
:1001CB00753618800CC3E52F648094985003E4F5C2
:1001DB0036D3E52F648094805005752F3C152E1572
:1001EB002FE52E7007E52F700312080022E5252559
:1001FB00E0FFA2A4E4334FF525E52625E0FFA2A5F9
:10020B00E4334FF526E52725E0FFA2A6E4334FF5AF
:10021B0027E52825E0FFA2A7E4334FF528E4FF7478
:10022B00252FF8E6FE700874372FF8E4F6800AEEF7
:10023B00B4FF0674372FF876010FBF02E222E4F504
:10024B000C7437250CF8E6FF7421250CF8E6FE6FCD
:10025B006032EE6021E50CB40116C3E52F64809487
:10026B00985008E52E6480948040051200038006A8
:10027B00E50C7002B2007437250CF8E6FF742125EB
:10028B000CF8A607050CE50CC3940440B422063009
:10029B00FFFFFFFFFFFF043701010101C100C18117
:1002AB00013618012F00012E0C042101010101045C
:1002BB0025FFFFFFFF012900022A0000022C00008E
:1002CB0000C2D530F707B2D563F0FF05F030E70C6D
:1002DB00B2D5F4048463F0FF05F080018430D502BD
:1002EB00F40422D2AFC294D293758901758CF87540
:1002FB008ACDD2A9D28C75A0F712000E12024980BA
:10030B00F8B29622C0F9A4B0999282F880908883B3
:04031B00C6A1868E63
:10080000E4F50AF50B7580FFE50AB40F004003021A
:1008100008CB900819F828287302084602084C02F1
:10082000085202085A02086202086C02087F020895
:100830008302088902088F02089502089D0208A514
:100840000208AF0208BED293C292801AD293C2921B
:10085000801ED293C292D291800ED293C292D29134
:100860008010D293D292C291C2908008D293D29239
:10087000C291D290050A90030FE493F580804CD288
:1008800093802EC293C2928018C293C292801AC2E1
:1008900093C292801EC293C292D291800EC293D212
:1008A00092C2918010C293D292C291D2908008C21B
:1008B00093D292D291C290050AE4F580800DC29342
:1008C000D292D291D290E4F50AF580E4F50B050BB3
:0D08D000E50BD394C840F712030C02080595
:100A1500787FE4F6D8FD75813A020A5C0202EEE4BD
:100A250093A3F8E493A34003F68001F208DFF48072
:100A350029E493A3F85407240CC8C333C4540F44C2
:100A450020C8834004F456800146F6DFE4800B019C
:100A550002040810204080900299E47E019360BC56
:100A6500A3FF543F30E509541FFEE493A360010E34
:100A7500CF54C025E060A840B8E493A3FAE493A35B
:100A8500F8E493A3C8C582C8CAC583CAF0A3C8C57C
:0C0A950082C8CAC583CADFE9DEE780BE64
:00000001FF
