:09000000020989751B1802000EAB
:10000B0002011BE51B75F00A120289AFF0EF339565
:10001B00E0FE74CC2FF58274023EF583E493F51564
:10002B00E51B75F00A120289FF3395E0FE74CC2FA5
:10003B00F58274023EF583E493F516E51475F00A28
:10004B00120289AFF0EF3395E0FE74CC2FF582747A
:10005B00023EF583E493F517E51475F00A12028955
:10006B00FF3395E0FE74CC2FF58274023EF583E4EA
:10007B0093F518E51375F00A120289AFF0EF33957B
:10008B00E0FE74CC2FF58274023EF583E493F519F0
:10009B00E51375F00A120289FF3395E0FE74CC2F3D
:1000AB00F58274023EF583E493F51A53177F22759C
:1000BB0080FFE51014601C14602514602E1460374B
:1000CB0014604024057048C292C291C290051085FD
:1000DB00158022C292C291D290051085168022C241
:1000EB0092D291C290051085178022C292D291D2E2
:1000FB0090051085188022D292C291C2900510856E
:10010B00198022D292C291D290E4F510851A8022E6
:10011B00C0E0C0F0C083C082C0D075D000C000C0AA
:10012B0001C002C003C004C005C006C007758CF82F
:10013B00758ACD1200BA1201CA0512E512700205BA
:10014B0011C394F4E5119401400975110075120067
:10015B00120179D007D006D005D004D003D002D03D
:10016B0001D000D0D0D082D083D0F0D0E032E4F5F3
:10017B0021F522300048151BD3E51B648094805079
:10018B0022C3E514648094985008E513648094802E
:10019B004005751B18800CC3E514648094985003BC
:1001AB00E4F51BD3E51464809480500575143C155D
:1001BB00131514E5137007E514700312080022E5FC
:1001CB000C25E0FFA2A4E4334FF50CE50D25E0FF71
:1001DB00A2A5E4334FF50DE50E25E0FFA2A6E4330F
:1001EB004FF50EE50F25E0FFA2A7E4334FF50FE423
:1001FB00FF740C2FF8E6FE7008741C2FF8E4F680E1
:10020B000AEEB4FF06741C2FF876010FBF02E22230
:10021B00E4F525741C2525F8E6FF74082525F8E67A
:10022B00FE6F6021EE6010E525B40105120003801E
:10023B0006E5257002B200741C2525F8E6FF74084C
:10024B002525F8A6070525E525C3940440C52206F8
:10025B0015FFFFFFFFFFFF041C01010101C100C1DE
:10026B0081011B1801140001130C04080101010189
:10027B00040CFFFFFFFF0110000211000000C2D5AC
:10028B0030F707B2D563F0FF05F030E70CB2D5F4C9
:10029B00048463F0FF05F080018430D502F404225E
:1002AB00D2AFC294D293758901758CF8758ACDD271
:1002BB00A9D28C75A0F712000E12021B80F8B29611
:1002CB0022C0F9A4B0999282F880908883C6A18647
:0102DB008E94
:10080000E4F523F5247580FFE523B40F00400302CF
:1008100008CB900819F828287302084602084C02F1
:10082000085202085A02086202086C02087F020895
:100830008302088902088F02089502089D0208A514
:100840000208AF0208BED293C292801AD293C2921B
:10085000801ED293C292D291800ED293C292D29134
:100860008010D293D292C291C2908008D293D29239
:10087000C291D29005239002CCE493F580804CD2B3
:1008800093802EC293C2928018C293C292801AC2E1
:1008900093C292801EC293C292D291800EC293D212
:1008A00092C2918010C293D292C291D2908008C21B
:1008B00093D292D291C2900523E4F580800DC29329
:1008C000D292D291D290E4F523F580E4F524052468
:0D08D000E524D394C840F71202C9020805C0
:10098900787FE4F6D8FD7581250209D00202ABE42F
:1009990093A3F8E493A34003F68001F208DFF480FF
:1009A90029E493A3F85407240CC8C333C4540F444F
:1009B90020C8834004F456800146F6DFE4800B0129
:1009C9000204081020408090025AE47E019360BC22
:1009D900A3FF543F30E509541FFEE493A360010EC1
:1009E900CF54C025E060A840B8E493A3FAE493A3E8
:1009F900F8E493A3C8C582C8CAC583CAF0A3C8C509
:0C0A090082C8CAC583CADFE9DEE780BEF0
:00000001FF
