:0900000002099312000E0201C76F
:10000B000200B7E51B75F00A120226AFF0EF33952D
:10001B00E0FE74D52FF58274023EF583E493F5155B
:10002B00E51B75F00A120226FF3395E0FE74D52FFF
:10003B00F58274023EF583E493F516E51475F00A28
:10004B00120226AFF0EF3395E0FE74D52FF58274D4
:10005B00023EF583E493F517E51475F00A120226B8
:10006B00FF3395E0FE74D52FF58274023EF583E4E1
:10007B0093F518E51375F00A120226AFF0EF3395DE
:10008B00E0FE74D52FF58274023EF583E493F519E7
:10009B00E51375F00A120226FF3395E0FE74D52F97
:1000AB00F58274023EF583E493F51A22C0E0C0F0AA
:1000BB00C083C082C0D075D000C000C001C002C0D8
:1000CB0003C004C005C006C007758CF8758ACD1235
:1000DB0001760512E51270020511C394F4E5119433
:1000EB0001400F7511007512003000061202481204
:1000FB0002681201C7D007D006D005D004D003D0B8
:10010B0002D001D000D0D0D082D083D0F0D0E0325A
:10011B00E4F523741C2523F8E6FF74082523F8E681
:10012B00FE6F603DEE602CE52370051202C3802349
:10013B00E523B40116C3E514648094985008E513C5
:10014B006480948040051202CC8008E523B402033E
:10015B001202B5741C2523F8E6FF74082523F8A6B4
:10016B00070523E523C3940440A922E50C25E0FFF2
:10017B00A2A4E4334FF50CE50D25E0FFA2A5E43373
:10018B004FF50DE50E25E0FFA2A6E4334FF50EE586
:10019B000F25E0FFA2A7E4334FF50FE4FF740C2FFC
:1001AB00F8E6FE7008741C2FF8E4F6800AEEB4FF34
:1001BB0006741C2FF876010FBF04E2227580FFE551
:1001CB009054F84510F590E510B4020A2415F8E6A2
:1001DB00547FF580800874152510F8E6F580E5103E
:1001EB00C394055003051022E4F510220615FFFFFA
:1001FB00FFFFFFFF041C01010101C100C101011B35
:10020B001801140001130C040801010101040CFF77
:10021B00FFFFFF0110000211000000C2D530F707ED
:10022B00B2D563F0FF05F030E70CB2D5F40484636C
:10023B00F0FF05F080018430D502F404221514D3AD
:10024B00E51464809480500575143C1513E5137008
:10025B000BE5147007C200C20112080022E51B60F7
:10026B0003151B22E5137009C3E5146480949840B1
:10027B000B751B181202D21202A6D29622D2AFC253
:10028B0094D293758901758CF8758ACDD2A9D28CCD
:10029B0075A0F712000E12011B80F8E4FFFE0FBFD2
:1002AB0000010EBE03F8BFE8F522C200751B18E46F
:1002BB00F51475130C020003300003C20022D200A8
:1002CB0022751B18020003B29622C0F9A4B09992B2
:0A02DB0082F880908883C6A1868E09
:10080000E4F521F5227580FFE521B40F00400302D5
:1008100008D8900819F828287302084602084C02E4
:10082000085202086702086F02087902088C020861
:100830009002089602089C0208A20208AA0208B2C6
:100840000208BC0208CBD293C2928027D293C292F4
:10085000802BD293C292D291C29005219002D5E40E
:1008600093547FF5808071D293C292D2918010D23E
:1008700093D292C291C2908008D293D292C291D266
:100880009005219002D5E493F580804CD293802E80
:10089000C293C2928018C293C292801AC293C2922B
:1008A000801EC293C292D291800EC293D292C29104
:1008B0008010C293D292C291D2908008C293D292F9
:1008C000D291C2900521E4F580800DC293D292D2DC
:1008D00091D290E4F521F580E4F5220522E522D3BA
:0A08E00094C840F71202D202080586
:10099300787FE4F6D8FD7581230209DA020288E440
:1009A30093A3F8E493A34003F68001F208DFF480F5
:1009B30029E493A3F85407240CC8C333C4540F4445
:1009C30020C8834004F456800146F6DFE4800B011F
:1009D300020408102040809001F7E47E019360BC7C
:1009E300A3FF543F30E509541FFEE493A360010EB7
:1009F300CF54C025E060A840B8E493A3FAE493A3DE
:100A0300F8E493A3C8C582C8CAC583CAF0A3C8C5FE
:0C0A130082C8CAC583CADFE9DEE780BEE6
:00000001FF
