:0900000002099312000E0201FA3C
:10000B000200B7E53675F00A12022AAFF0EF33950E
:10001B00E0FE74C22FF58274023EF583E493F53053
:10002B00E53675F00A12022AFF3395E0FE74C22FF3
:10003B00F58274023EF583E493F531E52F75F00AF2
:10004B0012022AAFF0EF3395E0FE74C22FF58274E3
:10005B00023EF583E493F532E52F75F00A12022A7E
:10006B00FF3395E0FE74C22FF58274023EF583E4F4
:10007B0093F533E52E75F00A12022AAFF0EF3395A4
:10008B00E0FE74C22FF58274023EF583E493F534DF
:10009B00E52E75F00A12022AFF3395E0FE74C22F8B
:1000AB00F58274023EF583E493F53522C0E0C0F08F
:1000BB00C083C082C0D075D000C000C001C002C0D8
:1000CB0003C004C005C006C007758CF8758ACD1235
:1000DB000176052DE52D7002052CC394F4E52C94C7
:1000EB0001400F752C00752D0030000612024C12CA
:1000FB00028A1201FAD007D006D005D004D003D063
:10010B0002D001D000D0D0D082D083D0F0D0E0325A
:10011B00E4F50A7437250AF8E6FF7421250AF8E698
:10012B00FE6F603DEE602CE50A70051202B0802375
:10013B00E50AB40116C3E52F648094985008E52EA8
:10014B006480948040051202B98008E50AB402036A
:10015B001202A27437250AF8E6FF7421250AF8A6C5
:10016B0007050AE50AC3940440A922E52525E0FF0B
:10017B00A2A4E4334FF525E52625E0FFA2A5E43341
:10018B004FF526E52725E0FFA2A6E4334FF527E53B
:10019B002825E0FFA2A7E4334FF528E4FF74252FB1
:1001AB00F8E6FE700874372FF8E4F6800AEEB4FF19
:1001BB000674372FF876010FBF04E2220630FFFFDB
:1001CB00FFFFFFFF043701010101C100C10101362F
:1001DB0018012F00012E0C0421010101010425FF40
:1001EB00FFFFFF012900022A0000022C000000750E
:1001FB0080FFE59054F84529F590E529B4020A24CF
:10020B0030F8E6547FF580800874302529F8E6F540
:10021B0080E529C394055003052922E4F52922C260
:10022B00D530F707B2D563F0FF05F030E70CB2D548
:10023B00F4048463F0FF05F080018430D502F404EC
:10024B0022152FD3E52F648094805005752F3C1514
:10025B002EE52E700BE52F7007C200C201120800AD
:10026B0022D2AFC294D293758901758CF8758ACD61
:10027B00D2A9D28C75A0F712000E12011B80F8E5E3
:10028B00366003153622E52E7009C3E52F64809482
:10029B0098400375361822C200753618E4F52F7591
:1002AB002E0C020003300003C20022D2002275364E
:1002BB0018020003B29622C0F9A4B0999282F8807A
:0702CB00908883C6A1868E16
:10080000E4F508F5097580FFE508B40F0040030220
:1008100008D8900819F828287302084602084C02E4
:10082000085202086702086F02087902088C020861
:100830009002089602089C0208A20208AA0208B2C6
:100840000208BC0208CBD293C2928027D293C292F4
:10085000802BD293C292D291C29005089002C2E43A
:1008600093547FF5808071D293C292D2918010D23E
:1008700093D292C291C2908008D293D292C291D266
:100880009005089002C2E493F580804CD293802EAC
:10089000C293C2928018C293C292801AC293C2922B
:1008A000801EC293C292D291800EC293D292C29104
:1008B0008010C293D292C291D2908008C293D292F9
:1008C000D291C2900508E4F580800DC293D292D2F5
:1008D00091D290E4F508F580E4F5090509E509D31E
:0A08E00094C840F71202BF02080599
:10099300787FE4F6D8FD75813A0209DA02026CE445
:1009A30093A3F8E493A34003F68001F208DFF480F5
:1009B30029E493A3F85407240CC8C333C4540F4445
:1009C30020C8834004F456800146F6DFE4800B011F
:1009D300020408102040809001C7E47E019360BCAC
:1009E300A3FF543F30E509541FFEE493A360010EB7
:1009F300CF54C025E060A840B8E493A3FAE493A3DE
:100A0300F8E493A3C8C582C8CAC583CAF0A3C8C5FE
:0C0A130082C8CAC583CADFE9DEE780BEE6
:00000001FF
