:0A00000002099312000E0201F8221B
:10000B000200B7E51B75F00A12024EAFF0EF339505
:10001B00E0FE74D02FF58274023EF583E493F51560
:10002B00E51B75F00A12024EFF3395E0FE74D02FDC
:10003B00F58274023EF583E493F516E51475F00A28
:10004B0012024EAFF0EF3395E0FE74D02FF58274B1
:10005B00023EF583E493F517E51475F00A12024E90
:10006B00FF3395E0FE74D02FF58274023EF583E4E6
:10007B0093F518E51375F00A12024EAFF0EF3395B6
:10008B00E0FE74D02FF58274023EF583E493F519EC
:10009B00E51375F00A12024EFF3395E0FE74D02F74
:1000AB00F58274023EF583E493F51A22C0E0C0F0AA
:1000BB00C083C082C0D075D000C000C001C002C0D8
:1000CB0003C004C005C006C007758CF8758ACD1235
:1000DB0001760512E51270020511C39464E51194C3
:1000EB0000400F75110075120030010612027012DC
:1000FB0002901201F8D007D006D005D004D003D05F
:10010B0002D001D000D0D0D082D083D0F0D0E0325A
:10011B00E4F523741C2523F8E6FF74082523F8E681
:10012B00FE6F603DEE602CE52370051202BE80234E
:10013B00E523B40116C3E514648094985008E513C5
:10014B006480948040051202C78008E523B4020343
:10015B001202B0741C2523F8E6FF74082523F8A6B9
:10016B00070523E523C3940440A922E50C25E0FFF2
:10017B00A2A4E4334FF50CE50D25E0FFA2A5E43373
:10018B004FF50DE50E25E0FFA2A6E4334FF50EE586
:10019B000F25E0FFA2A7E4334FF50FE4FF740C2FFC
:1001AB00F8E6FE7008741C2FF8E4F6800AEEB4FF34
:1001BB0006741C2FF876010FBF04E2220615FFFF11
:1001CB00FFFFFFFF041C01010101C101C102C100BE
:1001DB00011B1801140001130C0408010101010497
:1001EB000CFFFFFFFF01100002110000007580FFE4
:1001FB00E59054F84510F590E510B4020A2415F873
:10020B00E6547FF580800874152510F8E6F580E537
:10021B0010C394055003051022E4F51022D2AFC28F
:10022B0094D293758901758CF8758ACDD2A9D28C2D
:10023B0075A0F7758DFC758B67D2AB12000E120192
:10024B001B80F8C2D530F707B2D563F0FF05F0304D
:10025B00E70CB2D5F4048463F0FF05F08001843021
:10026B00D502F404221514D3E51464809480500550
:10027B0075143C1513E513700BE5147007C201C21E
:10028B000212080022E51B6003151B22E5137009FF
:10029B00C3E51464809498400B751B181202CD12A1
:1002AB000009D29622C201751B18E4F51475130CC4
:1002BB00020003300103C20122D20122751B180276
:1002CB000003B29622C0F9A4B0999282F88090886C
:0502DB0083C6A1868E20
:10080000E4F521F5227580FFE521B40F00400302D5
:1008100008D8900819F828287302084602084C02E4
:10082000085202086702086F02087902088C020861
:100830009002089602089C0208A20208AA0208B2C6
:100840000208BC0208CBD293C2928027D293C292F4
:10085000802BD293C292D291C29005219002D0E413
:1008600093547FF5808071D293C292D2918010D23E
:1008700093D292C291C2908008D293D292C291D266
:100880009005219002D0E493F580804CD293802E85
:10089000C293C2928018C293C292801AC293C2922B
:1008A000801EC293C292D291800EC293D292C29104
:1008B0008010C293D292C291D2908008C293D292F9
:1008C000D291C2900521E4F580800DC293D292D2DC
:1008D00091D290E4F521F580E4F5220522E522D3BA
:0A08E00094C840F71202CD0208058B
:10099300787FE4F6D8FD7581230209DA020228E4A0
:1009A30093A3F8E493A34003F68001F208DFF480F5
:1009B30029E493A3F85407240CC8C333C4540F4445
:1009C30020C8834004F456800146F6DFE4800B011F
:1009D300020408102040809001C7E47E019360BCAC
:1009E300A3FF543F30E509541FFEE493A360010EB7
:1009F300CF54C025E060A840B8E493A3FAE493A3DE
:100A0300F8E493A3C8C582C8CAC583CAF0A3C8C5FE
:0C0A130082C8CAC583CADFE9DEE780BEE6
:00000001FF
